{
  "contractName": "YieldTracking",
  "abi": [
    {
      "anonymous": false,
      "inputs": [
        {
          "indexed": true,
          "internalType": "address",
          "name": "from",
          "type": "address"
        },
        {
          "indexed": true,
          "internalType": "address",
          "name": "to",
          "type": "address"
        },
        {
          "indexed": false,
          "internalType": "uint256",
          "name": "yield",
          "type": "uint256"
        },
        {
          "indexed": false,
          "internalType": "bool",
          "name": "belowThreshold",
          "type": "bool"
        }
      ],
      "name": "YieldTransferred",
      "type": "event"
    },
    {
      "inputs": [
        {
          "internalType": "uint256",
          "name": "",
          "type": "uint256"
        }
      ],
      "name": "farmerAddresses",
      "outputs": [
        {
          "internalType": "address",
          "name": "",
          "type": "address"
        }
      ],
      "stateMutability": "view",
      "type": "function"
    },
    {
      "inputs": [
        {
          "internalType": "address",
          "name": "",
          "type": "address"
        }
      ],
      "name": "farmers",
      "outputs": [
        {
          "internalType": "string",
          "name": "name",
          "type": "string"
        },
        {
          "internalType": "uint256",
          "name": "yield",
          "type": "uint256"
        }
      ],
      "stateMutability": "view",
      "type": "function"
    },
    {
      "inputs": [
        {
          "internalType": "uint256",
          "name": "",
          "type": "uint256"
        }
      ],
      "name": "middlemanAddresses",
      "outputs": [
        {
          "internalType": "address",
          "name": "",
          "type": "address"
        }
      ],
      "stateMutability": "view",
      "type": "function"
    },
    {
      "inputs": [
        {
          "internalType": "address",
          "name": "",
          "type": "address"
        }
      ],
      "name": "middlemen",
      "outputs": [
        {
          "internalType": "string",
          "name": "name",
          "type": "string"
        },
        {
          "internalType": "uint256",
          "name": "yield",
          "type": "uint256"
        }
      ],
      "stateMutability": "view",
      "type": "function"
    },
    {
      "inputs": [
        {
          "internalType": "uint256",
          "name": "",
          "type": "uint256"
        }
      ],
      "name": "retailerAddresses",
      "outputs": [
        {
          "internalType": "address",
          "name": "",
          "type": "address"
        }
      ],
      "stateMutability": "view",
      "type": "function"
    },
    {
      "inputs": [
        {
          "internalType": "address",
          "name": "",
          "type": "address"
        }
      ],
      "name": "retailers",
      "outputs": [
        {
          "internalType": "string",
          "name": "name",
          "type": "string"
        },
        {
          "internalType": "uint256",
          "name": "yield",
          "type": "uint256"
        }
      ],
      "stateMutability": "view",
      "type": "function"
    },
    {
      "inputs": [
        {
          "internalType": "uint256",
          "name": "",
          "type": "uint256"
        }
      ],
      "name": "transactions",
      "outputs": [
        {
          "internalType": "address",
          "name": "from",
          "type": "address"
        },
        {
          "internalType": "address",
          "name": "to",
          "type": "address"
        },
        {
          "internalType": "uint256",
          "name": "yield",
          "type": "uint256"
        },
        {
          "internalType": "uint256",
          "name": "timestamp",
          "type": "uint256"
        }
      ],
      "stateMutability": "view",
      "type": "function"
    },
    {
      "inputs": [
        {
          "internalType": "address",
          "name": "_address",
          "type": "address"
        },
        {
          "internalType": "string",
          "name": "_name",
          "type": "string"
        },
        {
          "internalType": "uint256",
          "name": "_yield",
          "type": "uint256"
        }
      ],
      "name": "addFarmer",
      "outputs": [],
      "stateMutability": "nonpayable",
      "type": "function"
    },
    {
      "inputs": [
        {
          "internalType": "address",
          "name": "_address",
          "type": "address"
        },
        {
          "internalType": "string",
          "name": "_name",
          "type": "string"
        },
        {
          "internalType": "uint256",
          "name": "_yield",
          "type": "uint256"
        }
      ],
      "name": "addMiddleman",
      "outputs": [],
      "stateMutability": "nonpayable",
      "type": "function"
    },
    {
      "inputs": [
        {
          "internalType": "address",
          "name": "_address",
          "type": "address"
        },
        {
          "internalType": "string",
          "name": "_name",
          "type": "string"
        }
      ],
      "name": "addRetailer",
      "outputs": [],
      "stateMutability": "nonpayable",
      "type": "function"
    },
    {
      "inputs": [
        {
          "internalType": "address",
          "name": "_from",
          "type": "address"
        },
        {
          "internalType": "address",
          "name": "_to",
          "type": "address"
        },
        {
          "internalType": "uint256",
          "name": "_yield",
          "type": "uint256"
        }
      ],
      "name": "transferYield",
      "outputs": [],
      "stateMutability": "nonpayable",
      "type": "function"
    },
    {
      "inputs": [],
      "name": "getAllFarmers",
      "outputs": [
        {
          "internalType": "address[]",
          "name": "",
          "type": "address[]"
        }
      ],
      "stateMutability": "view",
      "type": "function"
    },
    {
      "inputs": [],
      "name": "getAllMiddlemen",
      "outputs": [
        {
          "internalType": "address[]",
          "name": "",
          "type": "address[]"
        }
      ],
      "stateMutability": "view",
      "type": "function"
    },
    {
      "inputs": [],
      "name": "getAllRetailers",
      "outputs": [
        {
          "internalType": "address[]",
          "name": "",
          "type": "address[]"
        }
      ],
      "stateMutability": "view",
      "type": "function"
    },
    {
      "inputs": [],
      "name": "getFarmerCount",
      "outputs": [
        {
          "internalType": "uint256",
          "name": "",
          "type": "uint256"
        }
      ],
      "stateMutability": "view",
      "type": "function"
    },
    {
      "inputs": [],
      "name": "getMiddlemanCount",
      "outputs": [
        {
          "internalType": "uint256",
          "name": "",
          "type": "uint256"
        }
      ],
      "stateMutability": "view",
      "type": "function"
    },
    {
      "inputs": [],
      "name": "getRetailerCount",
      "outputs": [
        {
          "internalType": "uint256",
          "name": "",
          "type": "uint256"
        }
      ],
      "stateMutability": "view",
      "type": "function"
    },
    {
      "inputs": [
        {
          "internalType": "address",
          "name": "_address",
          "type": "address"
        }
      ],
      "name": "getMiddlemanYield",
      "outputs": [
        {
          "internalType": "uint256",
          "name": "",
          "type": "uint256"
        }
      ],
      "stateMutability": "view",
      "type": "function"
    },
    {
      "inputs": [
        {
          "internalType": "address",
          "name": "_address",
          "type": "address"
        }
      ],
      "name": "getFarmerYield",
      "outputs": [
        {
          "internalType": "uint256",
          "name": "",
          "type": "uint256"
        }
      ],
      "stateMutability": "view",
      "type": "function"
    },
    {
      "inputs": [
        {
          "internalType": "address",
          "name": "_address",
          "type": "address"
        }
      ],
      "name": "getretailerYield",
      "outputs": [
        {
          "internalType": "uint256",
          "name": "",
          "type": "uint256"
        }
      ],
      "stateMutability": "view",
      "type": "function"
    }
  ],
  "bytecode": "0x608060405234801561000f575f80fd5b50611c138061001d5f395ff3fe608060405234801561000f575f80fd5b506004361061012a575f3560e01c8063994cac90116100ab578063b9cc16141161006f578063b9cc16141461037e578063c4a8b5d5146103ae578063d889a848146103cc578063e87d6350146103ea578063fb6618991461041a5761012a565b8063994cac90146102af5780639a268f35146102cd5780639ace38c2146102fe578063ac166eb314610331578063adda89ba1461034d5761012a565b80634146cae5116100f25780634146cae5146101f7578063536954e4146102155780635c112c511461023357806375c6da2314610263578063952d09261461027f5761012a565b80630c7194531461012e5780630f9125021461015e578063200bd1ce1461017a5780633647525e146101aa578063401b2168146101c6575b5f80fd5b610148600480360381019061014391906111be565b610438565b6040516101559190611228565b60405180910390f35b610178600480360381019061017391906113a7565b610473565b005b610194600480360381019061018f9190611413565b61054a565b6040516101a1919061144d565b60405180910390f35b6101c460048036038101906101bf91906113a7565b610593565b005b6101e060048036038101906101db9190611413565b61066b565b6040516101ee9291906114e0565b60405180910390f35b6101ff610710565b60405161020c919061144d565b60405180910390f35b61021d61071c565b60405161022a91906115c5565b60405180910390f35b61024d60048036038101906102489190611413565b6107a7565b60405161025a919061144d565b60405180910390f35b61027d600480360381019061027891906115e5565b6107f0565b005b61029960048036038101906102949190611413565b6108c7565b6040516102a6919061144d565b60405180910390f35b6102b761090f565b6040516102c4919061144d565b60405180910390f35b6102e760048036038101906102e29190611413565b61091b565b6040516102f59291906114e0565b60405180910390f35b610318600480360381019061031391906111be565b6109c1565b604051610328949392919061163f565b60405180910390f35b61034b60048036038101906103469190611682565b610a3a565b005b61036760048036038101906103629190611413565b610f3c565b6040516103759291906114e0565b60405180910390f35b610398600480360381019061039391906111be565b610fe2565b6040516103a59190611228565b60405180910390f35b6103b661101d565b6040516103c3919061144d565b60405180910390f35b6103d4611029565b6040516103e191906115c5565b60405180910390f35b61040460048036038101906103ff91906111be565b6110b4565b6040516104119190611228565b60405180910390f35b6104226110ef565b60405161042f91906115c5565b60405180910390f35b60058181548110610447575f80fd5b905f5260205f20015f915054906101000a900473ffffffffffffffffffffffffffffffffffffffff1681565b6040518060400160405280838152602001828152505f808573ffffffffffffffffffffffffffffffffffffffff1673ffffffffffffffffffffffffffffffffffffffff1681526020019081526020015f205f820151815f0190816104d791906118cc565b5060208201518160010155905050600383908060018154018082558091505060019003905f5260205f20015f9091909190916101000a81548173ffffffffffffffffffffffffffffffffffffffff021916908373ffffffffffffffffffffffffffffffffffffffff160217905550505050565b5f60015f8373ffffffffffffffffffffffffffffffffffffffff1673ffffffffffffffffffffffffffffffffffffffff1681526020019081526020015f20600101549050919050565b60405180604001604052808381526020018281525060015f8573ffffffffffffffffffffffffffffffffffffffff1673ffffffffffffffffffffffffffffffffffffffff1681526020019081526020015f205f820151815f0190816105f891906118cc565b5060208201518160010155905050600483908060018154018082558091505060019003905f5260205f20015f9091909190916101000a81548173ffffffffffffffffffffffffffffffffffffffff021916908373ffffffffffffffffffffffffffffffffffffffff160217905550505050565b5f602052805f5260405f205f91509050805f018054610689906116ff565b80601f01602080910402602001604051908101604052809291908181526020018280546106b5906116ff565b80156107005780601f106106d757610100808354040283529160200191610700565b820191905f5260205f20905b8154815290600101906020018083116106e357829003601f168201915b5050505050908060010154905082565b5f600480549050905090565b6060600380548060200260200160405190810160405280929190818152602001828054801561079d57602002820191905f5260205f20905b815f9054906101000a900473ffffffffffffffffffffffffffffffffffffffff1673ffffffffffffffffffffffffffffffffffffffff1681526020019060010190808311610754575b5050505050905090565b5f60025f8373ffffffffffffffffffffffffffffffffffffffff1673ffffffffffffffffffffffffffffffffffffffff1681526020019081526020015f20600101549050919050565b60405180604001604052808281526020015f81525060025f8473ffffffffffffffffffffffffffffffffffffffff1673ffffffffffffffffffffffffffffffffffffffff1681526020019081526020015f205f820151815f01908161085591906118cc565b5060208201518160010155905050600582908060018154018082558091505060019003905f5260205f20015f9091909190916101000a81548173ffffffffffffffffffffffffffffffffffffffff021916908373ffffffffffffffffffffffffffffffffffffffff1602179055505050565b5f805f8373ffffffffffffffffffffffffffffffffffffffff1673ffffffffffffffffffffffffffffffffffffffff1681526020019081526020015f20600101549050919050565b5f600580549050905090565b6002602052805f5260405f205f91509050805f01805461093a906116ff565b80601f0160208091040260200160405190810160405280929190818152602001828054610966906116ff565b80156109b15780601f10610988576101008083540402835291602001916109b1565b820191905f5260205f20905b81548152906001019060200180831161099457829003601f168201915b5050505050908060010154905082565b600681815481106109d0575f80fd5b905f5260205f2090600402015f91509050805f015f9054906101000a900473ffffffffffffffffffffffffffffffffffffffff1690806001015f9054906101000a900473ffffffffffffffffffffffffffffffffffffffff16908060020154908060030154905084565b5f8111610a7c576040517f08c379a0000000000000000000000000000000000000000000000000000000008152600401610a73906119e5565b60405180910390fd5b5f815f808673ffffffffffffffffffffffffffffffffffffffff1673ffffffffffffffffffffffffffffffffffffffff1681526020019081526020015f206001015410610b7357815f808673ffffffffffffffffffffffffffffffffffffffff1673ffffffffffffffffffffffffffffffffffffffff1681526020019081526020015f206001015f828254610b119190611a30565b925050819055508160015f8573ffffffffffffffffffffffffffffffffffffffff1673ffffffffffffffffffffffffffffffffffffffff1681526020019081526020015f206001015f828254610b679190611a63565b92505081905550610dba565b8160015f8673ffffffffffffffffffffffffffffffffffffffff1673ffffffffffffffffffffffffffffffffffffffff1681526020019081526020015f206001015410610d7e578160015f8673ffffffffffffffffffffffffffffffffffffffff1673ffffffffffffffffffffffffffffffffffffffff1681526020019081526020015f206001015f828254610c099190611a30565b92505081905550600a600260015f8773ffffffffffffffffffffffffffffffffffffffff1673ffffffffffffffffffffffffffffffffffffffff1681526020019081526020015f2060010154610c5f9190611a96565b610c699190611b04565b821015610c7557600190505b5f60025f8573ffffffffffffffffffffffffffffffffffffffff1673ffffffffffffffffffffffffffffffffffffffff1681526020019081526020015f205f018054610cc0906116ff565b905014610d22578160025f8573ffffffffffffffffffffffffffffffffffffffff1673ffffffffffffffffffffffffffffffffffffffff1681526020019081526020015f206001015f828254610d169190611a63565b92505081905550610d79565b8160015f8573ffffffffffffffffffffffffffffffffffffffff1673ffffffffffffffffffffffffffffffffffffffff1681526020019081526020015f206001015f828254610d719190611a63565b925050819055505b610db9565b6040517f08c379a0000000000000000000000000000000000000000000000000000000008152600401610db090611b7e565b60405180910390fd5b5b600660405180608001604052808673ffffffffffffffffffffffffffffffffffffffff1681526020018573ffffffffffffffffffffffffffffffffffffffff16815260200184815260200142815250908060018154018082558091505060019003905f5260205f2090600402015f909190919091505f820151815f015f6101000a81548173ffffffffffffffffffffffffffffffffffffffff021916908373ffffffffffffffffffffffffffffffffffffffff1602179055506020820151816001015f6101000a81548173ffffffffffffffffffffffffffffffffffffffff021916908373ffffffffffffffffffffffffffffffffffffffff160217905550604082015181600201556060820151816003015550508273ffffffffffffffffffffffffffffffffffffffff168473ffffffffffffffffffffffffffffffffffffffff167fdbf7598539a49d466c9c6bd7322aabc89ceeffa2850b77c28ec0e853ea23c6788484604051610f2e929190611bb6565b60405180910390a350505050565b6001602052805f5260405f205f91509050805f018054610f5b906116ff565b80601f0160208091040260200160405190810160405280929190818152602001828054610f87906116ff565b8015610fd25780601f10610fa957610100808354040283529160200191610fd2565b820191905f5260205f20905b815481529060010190602001808311610fb557829003601f168201915b5050505050908060010154905082565b60038181548110610ff1575f80fd5b905f5260205f20015f915054906101000a900473ffffffffffffffffffffffffffffffffffffffff1681565b5f600380549050905090565b606060058054806020026020016040519081016040528092919081815260200182805480156110aa57602002820191905f5260205f20905b815f9054906101000a900473ffffffffffffffffffffffffffffffffffffffff1673ffffffffffffffffffffffffffffffffffffffff1681526020019060010190808311611061575b5050505050905090565b600481815481106110c3575f80fd5b905f5260205f20015f915054906101000a900473ffffffffffffffffffffffffffffffffffffffff1681565b6060600480548060200260200160405190810160405280929190818152602001828054801561117057602002820191905f5260205f20905b815f9054906101000a900473ffffffffffffffffffffffffffffffffffffffff1673ffffffffffffffffffffffffffffffffffffffff1681526020019060010190808311611127575b5050505050905090565b5f604051905090565b5f80fd5b5f80fd5b5f819050919050565b61119d8161118b565b81146111a7575f80fd5b50565b5f813590506111b881611194565b92915050565b5f602082840312156111d3576111d2611183565b5b5f6111e0848285016111aa565b91505092915050565b5f73ffffffffffffffffffffffffffffffffffffffff82169050919050565b5f611212826111e9565b9050919050565b61122281611208565b82525050565b5f60208201905061123b5f830184611219565b92915050565b61124a81611208565b8114611254575f80fd5b50565b5f8135905061126581611241565b92915050565b5f80fd5b5f80fd5b5f601f19601f8301169050919050565b7f4e487b71000000000000000000000000000000000000000000000000000000005f52604160045260245ffd5b6112b982611273565b810181811067ffffffffffffffff821117156112d8576112d7611283565b5b80604052505050565b5f6112ea61117a565b90506112f682826112b0565b919050565b5f67ffffffffffffffff82111561131557611314611283565b5b61131e82611273565b9050602081019050919050565b828183375f83830152505050565b5f61134b611346846112fb565b6112e1565b9050828152602081018484840111156113675761136661126f565b5b61137284828561132b565b509392505050565b5f82601f83011261138e5761138d61126b565b5b813561139e848260208601611339565b91505092915050565b5f805f606084860312156113be576113bd611183565b5b5f6113cb86828701611257565b935050602084013567ffffffffffffffff8111156113ec576113eb611187565b5b6113f88682870161137a565b9250506040611409868287016111aa565b9150509250925092565b5f6020828403121561142857611427611183565b5b5f61143584828501611257565b91505092915050565b6114478161118b565b82525050565b5f6020820190506114605f83018461143e565b92915050565b5f81519050919050565b5f82825260208201905092915050565b5f5b8381101561149d578082015181840152602081019050611482565b5f8484015250505050565b5f6114b282611466565b6114bc8185611470565b93506114cc818560208601611480565b6114d581611273565b840191505092915050565b5f6040820190508181035f8301526114f881856114a8565b9050611507602083018461143e565b9392505050565b5f81519050919050565b5f82825260208201905092915050565b5f819050602082019050919050565b61154081611208565b82525050565b5f6115518383611537565b60208301905092915050565b5f602082019050919050565b5f6115738261150e565b61157d8185611518565b935061158883611528565b805f5b838110156115b857815161159f8882611546565b97506115aa8361155d565b92505060018101905061158b565b5085935050505092915050565b5f6020820190508181035f8301526115dd8184611569565b905092915050565b5f80604083850312156115fb576115fa611183565b5b5f61160885828601611257565b925050602083013567ffffffffffffffff81111561162957611628611187565b5b6116358582860161137a565b9150509250929050565b5f6080820190506116525f830187611219565b61165f6020830186611219565b61166c604083018561143e565b611679606083018461143e565b95945050505050565b5f805f6060848603121561169957611698611183565b5b5f6116a686828701611257565b93505060206116b786828701611257565b92505060406116c8868287016111aa565b9150509250925092565b7f4e487b71000000000000000000000000000000000000000000000000000000005f52602260045260245ffd5b5f600282049050600182168061171657607f821691505b602082108103611729576117286116d2565b5b50919050565b5f819050815f5260205f209050919050565b5f6020601f8301049050919050565b5f82821b905092915050565b5f6008830261178b7fffffffffffffffffffffffffffffffffffffffffffffffffffffffffffffffff82611750565b6117958683611750565b95508019841693508086168417925050509392505050565b5f819050919050565b5f6117d06117cb6117c68461118b565b6117ad565b61118b565b9050919050565b5f819050919050565b6117e9836117b6565b6117fd6117f5826117d7565b84845461175c565b825550505050565b5f90565b611811611805565b61181c8184846117e0565b505050565b5b8181101561183f576118345f82611809565b600181019050611822565b5050565b601f821115611884576118558161172f565b61185e84611741565b8101602085101561186d578190505b61188161187985611741565b830182611821565b50505b505050565b5f82821c905092915050565b5f6118a45f1984600802611889565b1980831691505092915050565b5f6118bc8383611895565b9150826002028217905092915050565b6118d582611466565b67ffffffffffffffff8111156118ee576118ed611283565b5b6118f882546116ff565b611903828285611843565b5f60209050601f831160018114611934575f8415611922578287015190505b61192c85826118b1565b865550611993565b601f1984166119428661172f565b5f5b8281101561196957848901518255600182019150602085019450602081019050611944565b868310156119865784890151611982601f891682611895565b8355505b6001600288020188555050505b505050505050565b7f5969656c64206d7573742062652067726561746572207468616e2030000000005f82015250565b5f6119cf601c83611470565b91506119da8261199b565b602082019050919050565b5f6020820190508181035f8301526119fc816119c3565b9050919050565b7f4e487b71000000000000000000000000000000000000000000000000000000005f52601160045260245ffd5b5f611a3a8261118b565b9150611a458361118b565b9250828203905081811115611a5d57611a5c611a03565b5b92915050565b5f611a6d8261118b565b9150611a788361118b565b9250828201905080821115611a9057611a8f611a03565b5b92915050565b5f611aa08261118b565b9150611aab8361118b565b9250828202611ab98161118b565b91508282048414831517611ad057611acf611a03565b5b5092915050565b7f4e487b71000000000000000000000000000000000000000000000000000000005f52601260045260245ffd5b5f611b0e8261118b565b9150611b198361118b565b925082611b2957611b28611ad7565b5b828204905092915050565b7f496e73756666696369656e74207969656c6420746f207472616e7366657200005f82015250565b5f611b68601e83611470565b9150611b7382611b34565b602082019050919050565b5f6020820190508181035f830152611b9581611b5c565b9050919050565b5f8115159050919050565b611bb081611b9c565b82525050565b5f604082019050611bc95f83018561143e565b611bd66020830184611ba7565b939250505056fea264697066735822122051de3c2d1cf73185553821d73a04ab6fbc0b42bb601164426dcc56b37b3cef6964736f6c63430008150033",
  "immutableReferences": {},
  "source": "// SPDX-License-Identifier: MIT\r\npragma solidity ^0.8.18;\r\n\r\ncontract YieldTracking {\r\n    struct User {\r\n        string name;\r\n        uint256 yield;\r\n    }\r\n\r\n    struct Transaction {\r\n        address from;\r\n        address to;\r\n        uint256 yield;\r\n        uint256 timestamp;\r\n    }\r\n\r\n    // uint256 checker;\r\n\r\n    mapping(address => User) public farmers;\r\n    mapping(address => User) public middlemen;\r\n    mapping(address => User) public retailers;\r\n\r\n    address[] public farmerAddresses;\r\n    address[] public middlemanAddresses;\r\n    address[] public retailerAddresses;\r\n\r\n    Transaction[] public transactions;\r\n\r\n    event YieldTransferred(address indexed from, address indexed to, uint256 yield, bool belowThreshold);\r\n\r\n    function addFarmer(address _address, string memory _name, uint256 _yield) public {\r\n        farmers[_address] = User(_name, _yield);\r\n        farmerAddresses.push(_address);\r\n    }\r\n\r\n    function addMiddleman(address _address, string memory _name, uint256 _yield) public {\r\n        middlemen[_address] = User(_name, _yield);\r\n        middlemanAddresses.push(_address);\r\n    }\r\n\r\n    function addRetailer(address _address, string memory _name) public {\r\n        retailers[_address] = User(_name, 0);\r\n        retailerAddresses.push(_address);\r\n    }\r\n\r\n    function transferYield(address _from, address _to, uint256 _yield) public {\r\n        require(_yield > 0, \"Yield must be greater than 0\");\r\n\r\n        bool belowThreshold = false;\r\n\r\n        if (farmers[_from].yield >= _yield) {\r\n            farmers[_from].yield -= _yield;\r\n            middlemen[_to].yield += _yield;\r\n        } else if (middlemen[_from].yield >= _yield) {\r\n            // checker=middlemen[_from].yield ;\r\n            middlemen[_from].yield -= _yield;\r\n            if (_yield < ((middlemen[_from].yield ) * 2 / 10)) { // Checking if remaining yield is below 20% of transferred yield\r\n                belowThreshold = true;\r\n            }\r\n            if (bytes(retailers[_to].name).length != 0) {\r\n                retailers[_to].yield += _yield;\r\n            } else {\r\n                middlemen[_to].yield += _yield;\r\n            }\r\n        } else {\r\n            revert(\"Insufficient yield to transfer\");\r\n        }\r\n\r\n        transactions.push(Transaction(_from, _to, _yield, block.timestamp));\r\n        emit YieldTransferred(_from, _to, _yield, belowThreshold);\r\n    }\r\n\r\n    function getAllFarmers() public view returns (address[] memory) {\r\n        return farmerAddresses;\r\n    }\r\n\r\n    function getAllMiddlemen() public view returns (address[] memory) {\r\n        return middlemanAddresses;\r\n    }\r\n\r\n    function getAllRetailers() public view returns (address[] memory) {\r\n        return retailerAddresses;\r\n    }\r\n\r\n    function getFarmerCount() public view returns (uint256) {\r\n        return farmerAddresses.length;\r\n    }\r\n\r\n    function getMiddlemanCount() public view returns (uint256) {\r\n        return middlemanAddresses.length;\r\n    }\r\n\r\n    function getRetailerCount() public view returns (uint256) {\r\n        return retailerAddresses.length;\r\n    }\r\n\r\n    function getMiddlemanYield(address _address) public view returns (uint256) {\r\n        return middlemen[_address].yield;\r\n    }\r\n\r\n    function getFarmerYield(address _address) public view returns (uint256){\r\n        return farmers[_address].yield;\r\n    }\r\n\r\n    function getretailerYield(address _address) public view returns (uint256){\r\n        return retailers[_address].yield;\r\n    }\r\n}\r\n",
  "sourcePath": "D:\\Projects\\STOCK\\contracts\\YieldTracking.sol",
  "compiler": {
    "name": "solc",
    "version": "0.8.21+commit.d9974bed.Emscripten.clang"
  },
  "schemaVersion": "3.4.16",
  "updatedAt": "2024-08-01T12:07:20.431Z",
  "devdoc": {
    "kind": "dev",
    "methods": {},
    "version": 1
  },
  "userdoc": {
    "kind": "user",
    "methods": {},
    "version": 1
  }
}